:10000000F8FF0020110400000D1E0000B50A0000DA
:100010000D1E00000D1E00000D1E00000D1E000034
:100020000D1E00000D1E00000D1E00000D1E000024
:100030000D1E00000D1E0000B30A0000B10A0000F2
:10004000570D00000D1E00000D1E00000D1E0000CB
:100050002F0D00000D1E00000D1E00000D1E0000E3
:100060000D1E00000D1E00000D1E00000D1E0000E4
:100070000D1E00000D1E00000D1E00000D1E0000D4
:100080000D1E00000D1E00000D1E00000D1E0000C4
:100090000D1E00000D1E00000D1E00000D1E0000B4
:1000A0000D1E00000D1E00000D1E00000D1E0000A4
:1000B0000D1E00000D1E00000D1E00000D1E000094
:1000C0000D1E00000D1E00000D1E00000D1E000084
:1000D0000D1E00000D1E00000D1E00000D1E000074
:1000E0000D1E00000D1E00000D1E00000D1E000064
:1000F0000D1E00000D1E00000D1E0000C9090000AD
:100100000D1E00000D1E00000D1E00000D1E000043
:100110000D1E00000D1E00000D1E00000D1E000033
:100120000D1E00000D1E00000D1E00000D1E000023
:100130000D1E00000D1E0000D10C0000D30C0000AD
:100140000D1E00000D1E00000D1E00000D1E000003
:10015000070A0000ED0900002B0C00000D1E000036
:100160000D1E00000D1E00000D1E00000D1E0000E3
:100170000D1E00000D1E00000D1E00000D1E0000D3
:100180000D1E00000D1E00000D1E00000D1E0000C3
:100190000D1E00000D1E00000D1E00000D1E0000B3
:1001A000EF0B0000790D0000C10A00000D1E0000D9
:1001B0000D1E00000D1E00000D1E00000D1E000093
:1001C0000D1E00000D1E00000D1E00000D1E000083
:1001D0000D1E00000D1E00000D1E00000D1E000073
:1001E0000D1E00000D1E00000D1E00000D1E000063
:10040000FFFFFFFFFFFFFFFFFFFFFFFFFEFFFFFFFD
:1004100062B64FF000004FF000014FF000024FF0C5
:1004200000034FF000044FF000054FF000064FF0BE
:1004300000074FF000084FF000094FF0000A4FF09E
:10044000000B4FF0000C01F021FDFEE770B5040039
:100450000D0016003068012802D0022805D00AE0FD
:100460002000C0B27168884705E0B0680470B068C9
:10047000401CB060FFE72868401C286070BD2DE973
:10048000F04704005FF0000A5046A1465FF0000A02
:1004900089F800A019F10109002A1FD0D1F800A0A5
:1004A0005546002D05D15FF0300A89F800A0401CA8
:1004B00038E0002D36D095FBF3FA564603FB165A6A
:1004C0005746002F02D5FF43313700E03037350063
:1004D00089F8007019F10109401CEAE7D1F800A081
:1004E000D446BCF1000F05D15FF0300A89F800A0B6
:1004F000401C17E0BCF1000F14D0BCFBF3FAD64649
:1005000003FB1ECAD046B8F10A0F02D218F1300818
:1005100001E018F13708F44689F8008019F1010963
:10052000401CE7E7BDE8F0872DE9F04104000D002D
:1005300016001F00A046A84507DA3A003100302017
:10054000FFF784FF18F10108F5E7BDE8F0812DE918
:10055000F04104000D0016001F00A046A84507DA70
:100560003A0031002020FFF771FF18F10108F5E78C
:10057000BDE8F0812DE9F24F92B004001500002093
:100580000090129883469BF800000590002800F028
:10059000F2810598252813D005980A2805D0220055
:1005A00000A90598FFF752FF09E0220000A90D20DD
:1005B000FFF74CFF220000A90A20FFF747FFD7E111
:1005C00000208146002003900398002822D11BF1CF
:1005D000010B9BF8000020280ED0232812D02B28D6
:1005E00007D02D2802D0302809D00EE059F001099B
:1005F000EAE759F00209E7E759F00409E4E759F09E
:100600000809E1E759F01009DEE7BBF1010B012011
:100610000390D9E700208246002003900398002829
:1006200013D11BF1010B9BF800000590303809280D
:1006300006D80A20059900FB0A10B0F1300AEDE750
:10064000BBF1010B01200390E8E71BF1010B9BF8C4
:1006500000002E2811D100200390039800280ED10D
:100660001BF1010B9BF800003038092800D8F4E793
:10067000BBF1010B01200390EFE7BBF1010B1BF174
:10068000010B9BF800004C2806D0682802D06C288B
:1006900001D002E003E002E001E0BBF1010B1BF13D
:1006A000010B9BF800000590582875D0622800F0D7
:1006B000D580632800F01D81642813D0692811D0EB
:1006C0006E2800F049816F2800F0BD80702800F08E
:1006D000D080732800F01681752800F0D580782826
:1006E0005AD040E1286806902D1D0A23012206A950
:1006F00009A8FFF7C4FE070009A8381806000698E5
:10070000002803D52D2002907F1C0FE05FEA89703E
:1007100003D52B2002907F1C08E05FEA497003D5C7
:10072000202002907F1C01E0002002900020049015
:100730005FEA097011D50298002804D0220000A9B0
:100740000298FFF783FE01200490230000AA51467F
:100750003800FFF7E9FE574612E05FEAC9700FD490
:10076000230000AA51463800FFF7F1FE0298002846
:1007700004D0220000A90298FFF768FE012004902F
:100780000498002807D10298002804D0220000A96C
:100790000298FFF75BFE98E0286801902D1D10235A
:1007A000002201A909A8FFF76AFE070009A8381866
:1007B0000600002004905FEA097016D55FEAC96060
:1007C0000BD5220000A93020FFF740FE220000A92F
:1007D0007820FFF73BFE01200490230000AA514639
:1007E0003800FFF7A1FE57461BE05FEAC97018D436
:1007F0005FEAC96000D5BF1C230000AA514638003B
:10080000FFF7A5FE5FEAC9600BD5220000A93020E2
:10081000FFF71CFE220000A97820FFF717FE012039
:1008200004905FEAC9600DD5049800280AD122001F
:1008300000A93020FFF70AFE220000A97820FFF768
:1008400005FEBF1C41E0286801902D1D08230022F1
:1008500001A909A8FFF713FE07001FE0286801900F
:100860002D1D0223002201A909A8FFF708FE070099
:1008700014E0286801902D1D1023002201A909A869
:10088000FFF7FDFD070009E0286801902D1D0A23F0
:10089000002201A909A8FFF7F2FD070009A83818EE
:1008A00006005FEA097007D5230000AA5146380008
:1008B000FFF73AFE574608E05FEAC97005D4230007
:1008C00000AA51463800FFF742FE3078002806D0D3
:1008D000220000A93078FFF7B9FD761EF5E75FEA40
:1008E000C97005D5230000AA51463800FFF72FFE36
:1008F0003EE0287807902D1D220000A90798FFF7F9
:10090000A5FD35E0286880462D1DB8F1000F22D0E6
:10091000404600F049F807005FEAC97005D423009B
:1009200000AA51463800FFF712FE98F80000002890
:1009300008D0220000A998F80000FFF787FD18F101
:100940000108F2E75FEAC97005D5230000AA514605
:100950003800FFF7FCFD0BE0286808902D1D089873
:100960000099016004E0220000A90598FFF76EFDE0
:100970001BF1010B07E6009813B0BDE8F08F0EB431
:100980007EB50400012000900648019007A80500EC
:100990002A00210000A8FFF7EDFD060030007EBC14
:1009A0005DF810FBB11E000001000A000023002AC0
:1009B00001D1002007E01000421C0078002801D07F
:1009C0005B1CF8E71800704710B572B6012000F004
:1009D000FDFA0400DFF8B813012000F01DFB210030
:1009E000C9B2012000F00BFB62B610BDDFF8A40312
:1009F000006850F00100DFF89C130860DFF89803EE
:100A0000012101707047DFF89403006850F0010085
:100A1000DFF888130860DFF888030078401CDFF8EF
:100A200080130870DFF87C0301210170DFF8700388
:100A30000078022190FBF1F202FB1102002A03D19F
:100A4000DFF8640301210170DFF85403007803210B
:100A500090FBF1F201FB1200002803D1DFF84C03F8
:100A600001210170DFF838030078042190FBF1F2D6
:100A700002FB1102002A03D1DFF8340301210170C7
:100A8000DFF81C030078402190FBF1F202FB110219
:100A9000002A03D1DFF81C0301210170DFF80003F5
:100AA0000078C02803D1DFF8F802002101707047F8
:100AB0007047704780B5DFF80003FFF760FFFAE783
:100AC000002008210800DFF8F4120968C140C907B6
:100AD0001DD5BA490968012282401143B74A116005
:100AE000B7490988002903D1B64901220A700EE0EE
:100AF000B34909880E290ADBB14900220A80B149AD
:100B000000220A70B0490978491CAF4A11700921C6
:100B10000800AA490968C140C9071DD5A749096845
:100B2000012282401143A54A1160A8490988002981
:100B300003D1A74901220A700EE0A44909880E29B1
:100B40000ADBA24900220A80A14900220A70A149B9
:100B50000978491C9F4A11700A21080097490968C1
:100B6000C140C9071DD5954909680122824011433A
:100B7000924A116098490988002903D197490122B6
:100B80000A700EE0944909880E290ADB9249002276
:100B90000A80924900220A7091490978491C904ABA
:100BA00011700B21080085490968C140C9071DD58E
:100BB00082490968012282401143804A11608949B3
:100BC0000988002903D1884901220A700EE085496D
:100BD00009880E290ADB834900220A808249002203
:100BE0000A7082490978491C804A117070470020B8
:100BF000002108007E490968C140C90706D57C4923
:100C00000968012282401143794A11600A210800D3
:100C100077490968C140C90706D5754909680122A5
:100C200082401143724A116070477248006850F068
:100C300001007049086063480078002804D06048CB
:100C40000088401C5E4908805D480088972805DBC5
:100C50005B48002101805B48002101705C480078FE
:100C6000002804D059480088401C5849088057483B
:100C70000088972805DB5548002101805448002151
:100C8000017056480078002804D053480088401C62
:100C90005149088050480088972805DB4E480021BC
:100CA00001804E48002101704F480078002804D090
:100CB0004C480088401C4B4908804A4800889728C7
:100CC00005DB48480021018047480021017070473A
:100CD000704738B548480468474800210160002043
:100CE00005000120A8402100C9B201420CD0EDB29C
:100CF000424850F8350030F04000EDB23F4941F82D
:100D000035003F48FFF73BFE012005000120A840C9
:100D10002100C9B2014209D0EDB2384850F835007F
:100D200030F04000EDB2354941F8350031BD80B5B5
:100D30003448006850F0100032490860042000F088
:100D4000E8F93148006830F010002F4908602F485A
:100D50000121017001BD80B52D48FFF710FE294823
:100D6000006850F00100274908602748006850F0EB
:100D700001002549086001BD2648006850F0800048
:100D80002449086024480078401C234908707047B3
:100D9000641E00001C710340CD04FF1F0C71034052
:100DA000CE04FF1FC804FF1FC904FF1FCA04FF1F92
:100DB000CB04FF1FCC04FF1FEC1D0000A0C00440AB
:100DC000C004FF1FCF04FF1FD004FF1FC204FF1F7A
:100DD000D104FF1FD204FF1FC404FF1FD304FF1F51
:100DE000D404FF1FC604FF1FD504FF1FD604FF1F36
:100DF000A0A004402C710340509003400C9003408D
:100E0000A01E0000248000400C800040D704FF1F7B
:100E1000781E000000000440D804FF1FF0B4C0B2E8
:100E2000002808D0022824D014D304283FD02FD380
:100E300005284BD059E07F4E4FF4407737607E4E07
:100E40004FF4407737607D4E366856F480667B4FAE
:100E50003E604AE07A4E4FF440773760794E4FF467
:100E600040773760754E366856F40066734F3E60C3
:100E70003BE0754E4FF440773760744E4FF4407747
:100E800037606E4E366856F480566C4F3E602CE0EC
:100E90006F4E4FF4407737606E4E4FF440773760B7
:100EA000664E366856F40056644F3E601DE06A4E4A
:100EB0004FF440773760694E4FF440773760684EA3
:100EC000366856F48066664F3E600EE0654E4FF41D
:100ED00040773760644E4FF440773760604E366835
:100EE00056F400665E4F3E60FFE7C0B25F4E56F8B4
:100EF0002060F67816F0F306C0B25C4F57F8207009
:100F0000FE70C0B2594E56F820600027B770C0B2CC
:100F1000002801D1012600E00026C0B2012801D13D
:100F2000012700E00027F6B2FFB23E43002E06D0B4
:100F30004F4E36684FF47A777E43350005E04D4ECC
:100F400036684FF47A777E4335000E01B5FBF6F62E
:100F50003200C0B2454E56F82060367816F0E006F2
:100F6000340092B2160A16F01F062643C0B23F4F55
:100F700057F820703E70C0B23C4E56F82060727038
:100F80006E010F01B6FBF7F692B2B6EB42163300D4
:100F9000C0B2364E56F82060B67A16F0E00634003D
:100FA000C0B2324E56F8206013F01F072743B772C5
:100FB000C0B22E4E56F82060F67856F00C06C0B23D
:100FC0002A4F57F82070FE70F0BC7047C0B2274916
:100FD00051F8201009798906F8D5C0B2234951F893
:100FE0002000C07970470100C9B2204850F82100A4
:100FF0000079800601D5012000E000207047C0B2D2
:101000001A4A52F8202012791206F8D5C0B2174AAF
:1010100052F82020D171704738B504000D002878AF
:10102000002806D029782000C0B2FFF7E8FF6D1C29
:10103000F5E731BD3C9004403890044034800440D2
:101040000CB0044010B004400CC0044008C0044080
:1010500040B0044044B0044064D0044060D0044038
:101060002880044024D0044020D004404C04FF1FBA
:10107000B404FF1FBC04FF1F3D490860704738B52A
:1010800004005C2C02DB3B48FFF779FC202094FB3A
:10109000F0F00500002D03D0022D27D013D337E048
:1010A0000120202194FBF1F202FB114290403249D1
:1010B00008600120202194FBF1F202FB11429040D4
:1010C0002E49086024E00120202194FBF1F202FB6C
:1010D000114290402A4908600120202194FBF1F23E
:1010E00002FB114290402749086011E001202021B5
:1010F00094FBF1F202FB1142904023490860012069
:10110000202194FBF1F202FB114290401F4908603C
:1011100031BD38B504005C2C02DB1D48FFF72FFC05
:10112000202094FBF0F00500002D03D0022D15D0F7
:101130000AD31CE00120202194FBF1F202FB1142B2
:1011400090401449086012E00120202194FBF1F244
:1011500002FB114290401049086008E00120202164
:1011600094FBF1F202FB114290400C49086031BD42
:1011700008ED00E0F01C000080E200E000E100E08B
:1011800084E200E004E100E088E200E008E100E041
:10119000B41C000080E100E084E100E088E100E0B0
:1011A000F0B5DFF8684324684FF47A756C4364083F
:1011B0005FEA144CBCFBF2FC65465FF0000C67462E
:1011C000ADB255FA07FCBCF1010F01DB7F1CF7E75C
:1011D000B2F57A7F00D27F1C34FA07FCBCFBF2FC2C
:1011E0006546ADB215F1010C0CFB03FC5FF0640E1B
:1011F000BCFBFEFC6646C0B2002805D0022800F009
:10120000DA80C0F0A4800AE1DFF804C3DCF800C093
:101210005CF0807CDFF8F8E2CEF800C0C9B20029AB
:101220000BD002292BD019D304294AD038D3062950
:1012300069D057D3072977D087E0DFF8D8C2DCF828
:1012400000C05CF4006CDFF8CCE2CEF800C0DFF840
:10125000C8C24FF4806ECCF800E077E0DFF8B4C28B
:10126000DCF800C05CF4006CDFF8A8E2CEF800C047
:10127000DFF8A8C24FF4806ECCF800E066E0DFF83B
:1012800094C2DCF800C05CF4006CDFF888E2CEF8B1
:1012900000C0DFF88CC24FF4806ECCF800E055E05F
:1012A000DFF870C2DCF800C05CF4006CDFF864E2C8
:1012B000CEF800C0DFF86CC24FF4806ECCF800E0CE
:1012C00044E0DFF850C2DCF800C05CF4805CDFF87A
:1012D00044E2CEF800C0DFF850C24FF4806ECCF884
:1012E00000E033E0DFF82CC2DCF800C05CF4805C86
:1012F000DFF820E2CEF800C0DFF830C24FF4806E95
:10130000CCF800E022E0DFF80CC2DCF800C05CF4AE
:10131000805CDFF800E2CEF800C0DFF814C24FF4C2
:10132000806ECCF800E011E0DFF8E8C1DCF800C026
:101330005CF4805CDFF8DCE1CEF800C0DFF8F4C1DB
:101340004FF4806ECCF800E000E0C4E067E0DFF826
:10135000C0C1DCF800C05CF0007CDFF8B4E1CEF87E
:1013600000C0C9B2002902D0012911D021E0DFF864
:10137000A4C1DCF800C05CF4007CDFF898E1CEF892
:1013800000C0DFF8B4C14FF4407ECCF800E011E0BB
:10139000DFF880C1DCF800C05CF4007CDFF874E1A9
:1013A000CEF800C0DFF894C14FF4407ECCF800E0E6
:1013B00000E090E033E0DFF888C1DCF800C05CF0CA
:1013C000807CDFF87CE1CEF800C0C9B2002902D0F1
:1013D000012911D021E0DFF83CC1DCF800C05CF449
:1013E000007CDFF830E1CEF800C0DFF858C14FF4E0
:1013F000407ECCF800E011E0DFF818C1DCF800C056
:101400005CF4007CDFF80CE1CEF800C0DFF838C1F6
:101410004FF4407ECCF800E000E05CE0FFE7C9B2AA
:10142000C0B2DFF828C15CF820C01CEBC10CC9B207
:10143000C0B2DFF818E15EF820E01EEBC10EDEF866
:101440000CE03EF0040ECCF80CE0C9B2C0B2DFF8FC
:10145000FCC05CF820C01CEBC10C5FF0280ECCF87F
:101460000CE0C0B2DFF8E4C05CF820C0FFB217F0B7
:10147000070E5EF0280ECCF800E0C0B2DFF8CCC05A
:101480005CF820C05FF0000ECCF84CE0C0B2DFF892
:10149000BCC05CF820C0ADB2CCF80850C0B2DFF8D8
:1014A000ACC05CF820C05FF0000ECCF84CE0C9B2D4
:1014B000C0B2DFF898C05CF820C01CEBC10CB6B21B
:1014C000CCF81060C0B2DFF884C05CF820C05FF0D8
:1014D000000ECCF804E0F0BD70B4C0B2DFF86C5080
:1014E00055F82050AD682C00651C05FB02F56426FC
:1014F000B5FBF6F52B00C9B2C0B2DFF8505055F875
:10150000205015EBC1052B6170BC7047BC04FF1F58
:101510003C8004403880044004B0044008B00440DB
:101520000CB0044010B0044010C0044014C004408B
:1015300018C004401CC00440209004402490044083
:1015400030800440289004402C9004401004FF1F79
:10155000DFF800F06504FF1F38B50400E4B2002C8A
:1015600000F00681E4B2200030281ED0322823D0BB
:10157000602828D064282DD06E2832D0782837D023
:101580007D283CD0822841D08C2846D096284BD04C
:10159000A02850D0AA2855D0B4285AD0C8285FD047
:1015A000E12864D0FA2869D06FE0A04818210170C2
:1015B0009E48002141706CE09C48182101709B48B6
:1015C0000121417065E09948182101709748182160
:1015D00041705EE095481821017094481A214170CD
:1015E00057E092481821017090481F21417050E047
:1015F0008E48132101708D481821417049E08B48B5
:101600001321017089481A21417042E08748132153
:10161000017086481C2141703BE084480E21017016
:1016200082481221417034E080480E2101707F48C9
:10163000152141702DE07D480E2101707B48182155
:10164000417026E079480E21017078481B214170D5
:101650001FE076480E21017074481E21417018E089
:1016600072480C21017071481C21417011E06F48D3
:101670000B2101706D481E2141700AE06B480A2160
:1016800001706A481F21417003E06420FFF764FF86
:10169000CAE0664800218170E4B2332C03DA634863
:1016A0000021C17017E0E4B2652C03DA5F48012124
:1016B000C17010E0E4B2972C03DA5C480221C170DB
:1016C00009E0E4B2C92C03DA58480321C17002E0F2
:1016D00056480F21C17055485449C9780171E4B288
:1016E0001A2C03DA51480021417141E0E4B2332C55
:1016F00003DA4E48012141713AE0E4B24C2C03DA9E
:101700004A480221417133E0E4B2652C03DA4748CC
:10171000032141712CE0E4B27E2C03DA434804211A
:10172000417125E0E4B2972C03DA4048052141716C
:101730001EE0E4B2B02C03DA3C480621417117E008
:10174000E4B2C92C03DA39480721417110E0E4B250
:10175000E22C03DA35480821417109E0E4B2FB2CA0
:1017600003DA32480921417102E030480F2141710A
:101770002E484078183080B2322148432B490978EE
:10178000491C89B290FBF1F0050029480021017045
:101790002848006850F080502649086026480078A4
:1017A00050F0800024490870244898210170244892
:1017B0000078C006FBD422480078C0F38100C0B294
:1017C0000228F8D11948007810F01F001D49087050
:1017D0001D480021017015484379144802791348C7
:1017E000C17812488078FFF7B3FE1048407810F0B7
:1017F0001F0050F04000144908701148007880061E
:10180000FBD50F4800784006FBD50C48007810F057
:101810003F000A4908700A480078C0F38100C0B24E
:101820000328F8D12800C0B232BD00BF4404FF1F16
:10183000014006403480044008C007400040064094
:1018400006400640044006400540064010B53024DE
:1018500072B6012301220421022000F0C1F8002306
:10186000554A01210020FFF79BFC0023524A022128
:101870000020FFF795FC4FF416510020FFF7CEFA39
:10188000012301221121002000F0AAF800230122E7
:101890001121012000F0A4F848480068052101FB4F
:1018A00000F1002000F0EEF8444800684FF47A712F
:1018B00001FB00F1012000F0E5F862B64048007835
:1018C000012802D13E48002101703E4800780128DD
:1018D00050D13C48002101700020FFF784FB3A49B9
:1018E000087039480078002844D00020FFF76EFBCC
:1018F0000400E4B2312C1AD146210020FFF77FFB0F
:1019000032480068C0F3404090F001002F49096858
:1019100060F351412D480160282201210020FFF78A
:10192000DBFD002202210020FFF7D6FD22E0E4B219
:10193000322C0ED142210020FFF761FB0022012151
:101940000020FFF7C9FD282202210020FFF7C4FD77
:1019500010E0E4B2332C0DD153210020FFF74FFBF0
:10196000002201210020FFF7B7FD00220221002004
:10197000FFF7B2FD16480078012802D11448002173
:10198000017014480078012802D11248002101702A
:1019900011480078012891D10F48002101700F48AB
:1019A0000068C0F3404090F001000C49096860F302
:1019B00051410A48016081E780380100BC04FF1FE3
:1019C000C804FF1FC904FF1FD904FF1F40F00F40C8
:1019D000CA04FF1FCB04FF1FCD04FF1F00F00F4000
:1019E00030B4C9B2C0B2254C54F82040D2B252F43F
:1019F000807544F82150D40705D5D2B2032A02D00D
:101A0000D2B2132A0DD1C0B21D4C54F820406469E3
:101A100001258D40AC43C0B2194D55F820506C6182
:101A20002AE0C0B2164C54F82040646901258D406C
:101A30002C43C0B2124D55F820506C61DBB2012B23
:101A40000DD1C0B20E4C54F82040246801258D40C1
:101A50002C43C0B20A4D55F820502C600CE0C0B2A7
:101A6000074C54F82040246801258D40AC43C0B297
:101A7000034D55F820502C6030BC70473004FF1FD8
:101A80001C04FF1F38B504000D001748006850F40F
:101A90000000154908601548006880088000134957
:101AA0000860E4B2200112494550E4B2104810EB3E
:101AB0000410C06850F00100E4B20D4911EB0411AC
:101AC000C860E4B20A4810EB0410806850F00300CC
:101AD000E4B2074911EB04118860E4B214F1440048
:101AE000FFF7CDFA31BD00003C8004400070034098
:101AF000007103402DE9F8432448254988420DD060
:101B000000208046B8F5826F08D22048204951F85D
:101B1000281040F8281018F10108F3E71B48FFF7D8
:101B2000ABFA1C4807001C4806001C480400A01B18
:101B300080464046B0F10108002804D03078387063
:101B4000761C7F1CF5E71648814616480500B5EB64
:101B5000090080464046B0F10108002805D0002069
:101B600089F8000019F10109F4E70F480F49104AFC
:101B7000531A98464346B3F10108002B04D00B7862
:101B80000370491C401CF5E7BDE8F1830000FF1F0E
:101B9000000000001004FF1F101C0000641C000067
:101BA000B404FF1FDA04FF1F6404FF1F641C00005D
:101BB000B41C000080B51148006850F478500F49FB
:101BC00008606420FFF7C8FC0D4908600C480068F5
:101BD0004FF47A7148430B4908600A4800680A4983
:101BE0000968C1F30361491CB0FBF1F007490860C3
:101BF0004FF496410120FFF711F901BD38800440F0
:101C0000B804FF1FB404FF1F44800440BC04FF1F3E
:101C1000008003400090034000800B4000F00F4024
:101C200040F00F4080F00F40C0F00F4000F10F4037
:101C30000090044000A0044000B0044000C00440F4
:101C400000D004400B1F00000009000000A0064067
:101C500000B0064000C0064000D0064000A00E4084
:101C600000B00E40F0B4114E366834000F4E3668A6
:101C700056F47F060D4F3E600E0616F0706656EA6B
:101C80000076170517F470073E431F0417F47027FA
:101C90003E43074F3E6000263500EDB29D4201D223
:101CA0006D1CFAE7014E3460F0BC704700F0014053
:101CB000448004400A4552522120496E76616C6985
:101CC00064204952512076616C7565207061737390
:101CD000656420746F2064697361626C6520697249
:101CE000712066756E6374696F6E210A00000000D2
:101CF0000A4552522120496E76616C69642049522E
:101D0000512076616C756520706173736564207411
:101D10006F20656E61626C65206972712066756EF8
:101D20006374696F6E210A0080B500F009F80A48F3
:101D300000884FF6FE7108400749088001BD000089
:101D400072B606484CF22051018004484DF6281125
:101D5000018062B670470000002005400E2005405B
:101D60000A2A2A2A2A64656661756C745F6973722F
:101D700020656E7465726564206F6E20766563748D
:101D80006F722025642A2A2A2A2A0D0A0A000000D6
:101D900010B5074979441831064C7C44163404E0E8
:101DA0000A68081D511888470146A142F8D110BDA4
:101DB0002C0000003800000050F8041B61B150F8FE
:101DC000042BD30744BFA9F101039A18002342F85A
:101DD000043B091FFAD1EFE770470000DDFFFFFF6A
:101DE00028000000B404FF1F000000000A2A2A2A6D
:101DF0002AD3B2BCFEC9CFB7C3B4EDCEF3212121A3
:101E00002A2A2A2A2A0D0A0A0000000080B503485F
:101E10000178C9B20248FEF7B2FD01BD04ED00E051
:101E2000601D000000F009F8002801D0FFF7B0FFA6
:101E30000020FFF70BFD00F002F80120704700F0D2
:101E400001B800000746384600F002F8FBE7000042
:101E500080B5C046C046024A11001820ABBEFBE761
:101E6000260002000AC4E3B7A2CBCDB5C4CAFDBEAA
:101E7000DDCEAAA3BA000000444D415F4348305F65
:101E800048616E646C65720A0000000080B5FFF75F
:101E90004BFFFFF72FFEFFF78DFEFFF7D7FCFEE7A6
:101EA0000A46544D31B7A2CBCDD6D0B6CF0A0000EA
:101EB00010B504002100C9B20120FFF7A0F810BD41
:0C1EC000C046C046C046C046FFF7ACFF5D
:0400000500001EC118
:00000001FF
