:10000000F8FF002011040000211500001D09000068
:100010002115000021150000211500002115000008
:1000200021150000211500002115000021150000F8
:1000300021150000211500001B090000190900000E
:10004000A90A00002115000021150000211500005B
:10005000870A00002115000021150000211500006D
:1000600021150000211500002115000021150000B8
:1000700021150000211500002115000021150000A8
:100080002115000021150000211500002115000098
:100090002115000021150000211500002115000088
:1000A0002115000021150000211500002115000078
:1000B0002115000021150000211500002115000068
:1000C0002115000021150000211500002115000058
:1000D0002115000021150000211500002115000048
:1000E0002115000021150000211500002115000038
:1000F00021150000211500002115000095080000C1
:100100002115000021150000211500002115000017
:100110002115000021150000211500002115000007
:1001200021150000211500002115000021150000F7
:100130002115000021150000590A00005B0A00008B
:1001400021150000211500002115000021150000D7
:10015000C9080000B7080000FB09000021150000D5
:1001600021150000211500002115000021150000B7
:1001700021150000211500002115000021150000A7
:100180002115000021150000211500002115000097
:100190002115000021150000211500002115000087
:1001A000DB090000C70A00002B0900002115000030
:1001B0002115000021150000211500002115000067
:1001C0002115000021150000211500002115000057
:1001D0002115000021150000211500002115000047
:1001E0002115000021150000211500002115000037
:10040000FFFFFFFFFFFFFFFFFFFFFFFFFEFFFFFFFD
:1004100062B64FF000004FF000014FF000024FF0C5
:1004200000034FF000044FF000054FF000064FF0BE
:1004300000074FF000084FF000094FF0000A4FF09E
:10044000000B4FF0000C01F0FDF8FEE710B50C4674
:100450001168012902D0022904D008E0C0B2516815
:10046000884704E0916808709068401C906020689C
:10047000401C206010BD30B4002400F8014B002A5D
:10048000096812D091B191FBF3F203FB121100291C
:1004900046BFC94301F1310501F130051146641C25
:1004A00000F8015B0029EED114E019B93021017088
:1004B00001240FE0B1FBF3F203FB12110A2934BF50
:1004C00001F1300501F137051146641C00F8015BAC
:1004D0000029EFD1204630BC70472DE9F04F80460F
:1004E0008FB00020924600900D4604E0424600A9DD
:1004F000FFF7ACFF6D1C2878010000F099812528DA
:100500000AD00A28F2D1424600A90D20FFF79EFF2B
:10051000424600A90A20EBE7002601E046F010065B
:1005200015F8010F20280ED02328F7D02B2807D04C
:100530002D2802D0302809D00BE046F00106EFE765
:1005400046F00206ECE746F00406E9E746F0080646
:10055000E6E7691E4FF0000905E009EB890200EBB0
:100560004200A0F1300911F8010F0246303A092A81
:10057000F3D92E2804D111F8010F30380928FAD9FF
:100580004D1E15F8010F4C2818BF682802D06C28A2
:1005900018BF6D1E15F8010F582862D0622800F0B0
:1005A000C080632800F00C81642818BF692811D02E
:1005B0006E2800F038816F2800F0AE80702800F0BF
:1005C000B580732800F00081752800F0B480782889
:1005D00047D08BE75AF8040B0A230390012203A9A2
:1005E00005A8FFF748FF044605A8201802900398C5
:1005F000002848BF2D2706D4B00748BF2B2702D4B8
:10060000700702D52027641C00E00027300711D5B1
:10061000384618B1424600A9FFF718FF4C4507DAE3
:10062000424600A93020FFF711FF641C4C45F7DB60
:100630004C46A9E0F0070BD4A3464C4508DA4246E5
:1006400000A92020FFF702FF0BF1010BCB45F6DBE1
:100650003846002800F09880424600A9FFF7F6FED1
:1006600092E05AF8040B10230190002201A905A87A
:10067000FFF701FF044605A8201802900027300765
:1006800018D5F0060AD5424600A93020FFF7DEFE55
:10069000424600A97820FFF7D9FE01274C4507DA2A
:1006A000424600A93020FFF7D1FE641C4C45F7DB21
:1006B0004C4621E0F0071FD406F010008DF8100022
:1006C00000B1A41CA346CB4508DA424600A920206D
:1006D000FFF7BCFE0BF1010BCB45F6DB9DF81000DC
:1006E00050B1424600A93020FFF7B0FE424600A9B3
:1006F0007820FFF7ABFE0127F00645D5002F43D148
:10070000424600A93020FFF7A1FE424600A978200A
:10071000FFF79CFEA41C37E05AF8040B0823019055
:100720000DE05AF8040B0223019008E05AF8040B7C
:100730001023019003E05AF8040B0A2301900022D1
:1007400001A905A8FFF797FE044605A82018029006
:1007500030070CD54C45BFF66BAF424600A93020A0
:10076000FFF774FE641C4C45F7DB4C460CE0F007C9
:100770000AD427464C4507DA424600A92020FFF755
:1007800065FE7F1C4F45F7DB0298007848B102A850
:10079000076842467B1E036000A93878FFF756FEC3
:1007A000F2E7F0077FF5A6AE4C45BFF6A3AE424692
:1007B00000A92020FFF74AFE641C4C45F7DB99E6B0
:1007C0005AF8040BC0B291E65AF8047B002F3FF4AC
:1007D00091AE384600F042F80446F0070BD4A34629
:1007E0004C4508DA424600A92020FFF72FFE0BF106
:1007F000010BCB45F6DB387830B1424600A917F83B
:10080000010BFFF723FEF6E7F0077FF573AE4C45CB
:10081000BFF670AE424600A92020FFF717FE641C09
:100820004C45F7DB66E65AF8040B0099016061E677
:1008300000980FB0BDE8F08F0EB400B584B0012170
:100840000091054905AA0191014600A8FFF745FE60
:1008500004B05DF810FB000065160000002138B1FF
:10086000027822B110F8012F491C002AFAD108465B
:10087000704750F8041B61B150F8042BD30744BFF4
:10088000A9F101039A18002342F8043B091FFAD189
:10089000EFE7704710B572B6012000F0E1F90446A9
:1008A0000FF26C21012000F0F8F92146012000F040
:1008B000EAF962B610BD8948016841F001010160A2
:1008C000874801210170704786480122016841F084
:1008D00001010160844841790270491C4171CA07D5
:1008E0005CBF01224270C9B2032291FBF2F202EB1B
:1008F00042028A1A04BF012282700322114204BFFD
:100900000122C2703F22114204BF01220271C0299C
:1009100004BF0021417170477047704710B50FF256
:1009200004242046FFF788FFFBE770480168C905EB
:1009300012D501684FF48072114301606C490A8935
:1009400012B901220A7007E00E2A05D300220A819B
:100950000A704A78521C4A700168890512D50168EC
:100960004FF400721143016061494A8912B90122B2
:100970008A7007E00E2A05D300224A818A70CA785D
:10098000521CCA700168490511D5016841F48061A3
:10099000016057498A8912B901220A7107E00E2ABB
:1009A00005D300228A810A714A79521C4A71016872
:1009B000090511D5016841F4006101604C49C889FD
:1009C00010B90120887170470E2805D30020C88116
:1009D0008871C879401CC871704746480168C907CA
:1009E00003D5016841F0010101600168490503D5A3
:1009F000016841F48061016070473F48016841F03F
:100A0000010101603A480189027802B1491C89B2AA
:100A1000972924BF0021017001814189827802B1A8
:100A2000491C89B2972924BF0021817041818189A5
:100A3000027902B1491C89B2972924BF00210171B2
:100A40008181C189827902B1491C89B2972924BF69
:100A500000218171C1817047704738B5274C002053
:100A6000656C6064E80707D5206820F040002060CE
:100A70000FF2D000FFF7E0FEA80703D5A06820F032
:100A80004000A06031BD10B51D4CA06940F01000C1
:100A9000A061042000F050F92068012120F010002E
:100AA00020601848017010BD80B50FF2A800FFF754
:100AB000C3FE1348816941F001018161016841F081
:100AC0000101016001BD1048016841F08001016031
:100AD0000E480178491C0170704700001C710340EA
:100AE000C604FF1F0C710340C004FF1FA0C00440D8
:100AF000AC04FF1FA0A004402C7103400C900340E5
:100B00000C800040C704FF1F00000440C804FF1F02
:100B10000AC4E3B7A2CBCDB5C4CAFDBEDDCEAAA33D
:100B2000BA0000000A2A2A2A2AD3B2BCFEC9CFB7CB
:100B3000C3B4EDCEF32121212A2A2A2A2A0D0A0A3A
:100B4000000000000A46544D31B7A2CBCDD6D0B636
:100B5000CF0A0000444D415F4348305F48616E64F6
:100B60006C65720A00000000F0B4052844D8DFE884
:100B700000F0030E19242F394E4A4FF4407353608E
:100B800013604D4AD36843F48063D36034E04B4A2A
:100B90004FF4407313605360474AD36843F40063D3
:100BA000D36029E0464A4FF4407353601360424AD1
:100BB000D36843F48053D3601EE0404A4FF440733F
:100BC000536393633C4AD36843F40053D36013E008
:100BD0003C4A4FF4407353641364374A136843F438
:100BE000806308E0374A4FF4407353601360324A21
:100BF000136843F400631360334B024653F82240FA
:100C0000E57805F0F305E57053F822400025A5705E
:100C100000281ABF01282D482D4800684FF47A7427
:100C2000604353F822500901B0FBF1F42F782604F9
:100C3000360E66F304072F7053F8225040016C7093
:100C400053F82240B0FBF1F0A17A60F30401A172E5
:100C500053F82200C17841F00C01C170F0BC70471C
:100C6000194951F8202013799B06FCD5D07970479B
:100C7000154951F82000007900F02001481E8041FC
:100C8000C043C00F7047104A52F8203093F804C098
:100C90005FEA0C6CFAD5D971704738B504460D4639
:100CA00004E015F8011B2046FFF7EDFF2878002827
:100CB000F7D131BD38900440288004400CB0044086
:100CC00008C0044020D004404C04FF1FA804FF1FAC
:100CD000A004FF1F2D490860704710B504465C2C26
:100CE000A4BF0FF2B800FFF7A7FD201104EBD060FE
:100CF000401103D0022815D00AD310BD0121A4EB66
:100D0000401001FA00F0224908602249086010BD35
:100D10000121A4EB401001FA00F01D4948601D4973
:100D2000486010BD0121A4EB401001FA00F0184901
:100D300088601849886010BD10B504465C2CA4BFBB
:100D40000FF29000FFF778FD201104EBD060401106
:100D500003D0022811D008D310BD0121A4EB40100C
:100D600001FA00F00C49086010BD0121A4EB40100D
:100D700001FA00F00849486010BD0121A4EB4010C1
:100D800001FA00F00449886010BD000008ED00E0A1
:100D900080E200E000E100E080E100E00A4552521C
:100DA0002120496E76616C69642049525120766138
:100DB0006C75652070617373656420746F20656E57
:100DC00061626C65206972712066756E6374696F0B
:100DD0006E210A000A4552522120496E76616C69E3
:100DE00064204952512076616C756520706173737F
:100DF000656420746F2064697361626C6520697238
:100E0000712066756E6374696F6E210A00000000C0
:100E1000F0B4DFF8B4414FF47A7524686C43650888
:100E20002C0CB4FBF2F6B6B20024012E04DB641CD9
:100E300046FA04F7012FFADA4FF47A76B24238BF55
:100E4000641CE540B5FBF2F292B2551C6B4364257D
:100E5000B3FBF5F318B1022874D056D38EE0DFF857
:100E60006C510729EE6846F08076EE6000F29D80B6
:100E7000DFE801F0040E172028313A43AE6846F44B
:100E80000066AE60DFF848514FF480662E6075E072
:100E9000AE6846F40066AE604D4D4FF480666E60FD
:100EA0006CE0AE6846F40066AE60494D4FF4806673
:100EB000AE6063E0AE6846F40066AE60444D4FF449
:100EC00080665AE0AE6846F48056AE60414D4FF4FD
:100ED00080662E6052E0AE6846F48056AE603D4DAE
:100EE0004FF480666E6049E0AE6846F48056AE60AE
:100EF000384D4FF48066AE6040E0AE6846F48056F0
:100F0000AE60344D4FF4806637E0304DEE6846F009
:100F10000076EE6011B101290AD046E0AE684FF4C8
:100F200000773E43AE602C4D4FF440762E6025E0B6
:100F3000AE684FF400773E43AE60274D4FF44076E5
:100F40006E601BE0214D2E6846F080762E6011B158
:100F500001290AD029E0AE684FF400773E43AE6025
:100F60001D4D4FF44076AE6008E0AE684FF4007758
:100F70003E43AE60184D4FF44076EE60174D04F0DE
:100F8000070455F8200044F0280400EBC101CD68A7
:100F90009BB225F00405CD602825CD6004600024B7
:100FA000C4648260C4640B614460F0BC70470B4B46
:100FB00053F82000836800EBC1005B1C5A43642394
:100FC000B2FBF3F202617047A804FF1F30800440B7
:100FD00004B0044010C00440209004401004FF1FDF
:100FE000DFF800F06504FF1F70B5002800F0918065
:100FF00030281ED0322826D0602827D064284DD033
:101000006E2826D0782827D07D2828D0822829D07D
:101010008C282AD096282BD0A0282CD0AA282DD0D6
:10102000B4282ED0C8282FD0E12830D0FA2831D0CB
:1010300033E018210022594C217000216270A17008
:1010400033282ED239E018210122F4E71821182282
:10105000F1E718211F22EEE713211822EBE71321F5
:101060001A22E8E713211C22E5E70E211222E2E70B
:101070000E211522DFE70E211822DCE70E211B22AC
:10108000D9E70E211E22D6E70C211C22D3E70B2123
:101090001E22D0E70A211F22CDE7642018211A2240
:1010A000C9E7652838BF012107D3972838BF022137
:1010B00003D3C92834BF03210F21E170E1781A2836
:1010C000217138BF002023D3332838BF01201FD31C
:1010D0004C2838BF02201BD3652838BF032017D304
:1010E0007E2838BF042013D3972838BF05200FD39C
:1010F000B02838BF06200BD3C92838BF072007D334
:10110000E22838BF082003D3FB2834BF09200F2072
:101110006071224C32216078214E183080B24843F1
:101120002178491C89B290FBF1F5002070701D48B0
:10113000016841F0805101601B48017841F0800155
:10114000017098203070B079C006FCD4B079C0F33B
:1011500081000228FAD1207800F01F0030710020B1
:10116000707163792279E178A078FFF739FF6078B0
:1011700000F01F0040F040007071B0798006FCD58F
:10118000B0794006FCD5307800F03F003070B0797F
:10119000C0F381000328FAD1E8B270BD4404FF1FF8
:1011A000004006403480044008C007402DE9F04765
:1011B00072B6012301220421022000F0A7F84A4C54
:1011C0000023224601211846FFF722FE0023224673
:1011D00002211846FFF71CFE4FF4E1310020FFF713
:1011E000C3FC01231A461121002000F08FF80123CF
:1011F00000221121184600F089F83C4C206800EBD1
:101200008001002000F0B0F820684FF47A7141436B
:10121000012000F0A9F862B6354C364D364EDFF8A5
:10122000DC80374FDFF8DC90DFF8DCA018E058B93D
:1012300003207880002201210020FFF7B8FE002261
:1012400002210020FFF7B3FE2878012808D10020F2
:10125000287020682168C043400C60F35141216030
:101260009AF80000012804BF00208AF8000099F8CD
:10127000000001280FD1002089F80000FFF7F8FCDA
:10128000387040B10020FFF7EBFC401C3870397813
:101290000020FFF7F8FC98F80000012804BF0020A8
:1012A00088F8000030780128CED10020307078888E
:1012B000032805D102207880322201210020BCE7DA
:1012C000022804D10120788000220121B4E70128FE
:1012D000ADD10020788000220121FFF768FE322284
:1012E00002210020AEE700BF80380100A804FF1FE4
:1012F00000F00F40C604FF1FC404FF1FC204FF1FFD
:10130000BC04FF1FC104FF1FC004FF1F70B4154CB5
:101310004FF4807604EB80056D69164345F8216033
:10132000D50703D5032A18BF132A09D154F8200082
:101330000123426903FA01F122EA010141610EE051
:1013400054F82000012202FA01F142690A43426185
:10135000012B02680CBF114322EA0101016070BC3D
:10136000704700001C04FF1F0D4A136843F400037C
:1013700013600C4A13689B089B00FFE713600A4B3D
:101380000201D150D118CA68443042F00102CA604B
:101390008A6842F003028A60FFF79FBC00000000E9
:1013A0003C800440007003400071034010B51649B2
:1013B000164C8C4204D04FF48252204600F038F88C
:1013C0002046FFF787FC1249124A1348521A05D0EB
:1013D00011F8013B521E00F8013BF9D10F481049AA
:1013E000091A05D0491E002200F8012B0029F9D165
:1013F0000C490D4A0D48521A05D011F8013B521EF6
:1014000000F8013BF9D110BD000000000000FF1FF3
:1014100088140000DC1400001004FF1FA004FF1F4C
:10142000C904FF1F601500009C1500006404FF1F25
:10143000103A07D330B4B1E83810103AA0E83810A9
:10144000F9D230BC530724BFB1E80810A0E8081057
:1014500044BF51F8043B40F8043BD20724BF31F8A5
:10146000022B20F8022B44BF0B7803707047083A18
:1014700007D3B1E80810083A40F8043B40F804CB21
:10148000F7D25307E4E700000080034000900340D8
:1014900000800B4000F00F4040F00F4080F00F4004
:1014A000C0F00F4000F10F400090044000A0044045
:1014B00000B0044000C0044000D004400B1F0000F6
:1014C0000009000000A0064000B0064000C0064031
:1014D00000D0064000A00E4000B00E4038B50E4DC2
:1014E0000E4C286840F4785028606420FFF77CFD9B
:1014F00060604FF47A7111FB00F02060E968C1F37D
:101500000361491CB0FBF1F0A060BDE834404FF42A
:1015100096410120FFF728BB38800440A004FF1F3C
:10152000024801780FF20800FFF786B904ED00E0E9
:101530000A2A2A2A2A64656661756C745F69737267
:1015400020656E7465726564206F6E2076656374C5
:101550006F722025642A2A2A2A2A0D0A0A0000000E
:1015600070B4090601F0706141EA00701105094C80
:1015700001F47001084325681904266801F47021FC
:10158000084346F47F06044926600860256070BC65
:10159000704700BF00F001404480044080B500F077
:1015A00007F808484FF6FE7201881140018001BD1E
:1015B00072B605484CF2205101804DF62811018089
:1015C00062B67047002005400E20054010B508495E
:1015D00079441C31074C7C441A34A14206D0081DC2
:1015E0000A68511888470146A142F8D110BD00BFD2
:1015F00008000000140000007BF2FFFF2C00000038
:10160000A004FF1F000000000120C046002801D0F8
:10161000FFF7DCFF0020FFF7C9FD00F000F800F045
:1016200001B800000746384600F002F8FBE700006A
:1016300080B5C046C046024A11001820ABBEFBE789
:101640002600020080B5FFF7A9FFFFF7AFFEFFF706
:1016500045FFFFF7ABFDFEE7C046C046C046C046AB
:0C166000FFF7D2FF01460120FFF70DBB91
:040000050000165988
:00000001FF
